:020000040000FA
:1000000000440020FD30010001C9011001C90110A8
:1000100001C9011001C9011001C9011001C9011074
:1000200001C9011001C9011001C9011001C9011064
:1000300001C9011001C901103FC90110120001835B
:1000400001000143C5A70D63C1DF15B00701004CD6
:10005000060020C5A70001611061081007430228AF
:1000600004438AFF00FF0140028460F8050823F979
:1000700015083009838800000200FF4488601820BA
:10008000100BC1F80000C8050020A53E0000BB040D
:100090009007E942000041350100066312942010E8
:1000A00007B82201000B200080FE18100B102C0155
:1000B0000028310100C42F0100B01C100B8025DB8B
:1000C000338025000050C300001420100FA08601CB
:1000D00000F04902000101FF000C08C08004045038
:1000E00003070000800D401007403B001B14080769
:1000F0000201D0120410526404128004F0010CFFBB
:10010000FF0001164400210461262003D52E0100C2
:100110000338317A1148111C2104526C04834C10AD
:1001200050455C100101008818F206881C12A418C2
:10013000210452AC0452B40463682A221530111011
:10014000210452D004439C0104C70100C03001BF08
:10015000BD016212F824210443000704520804522E
:10016000100452180452200483D1124612050AD6F4
:100170002013437807131250082104525804526088
:100180000452680452700452780452800452880465
:10019000830000B06204641202E042091CD00353E1
:1001A000C001100001D2011112D448210452DC0414
:1001B00052E40452EC0452F40452FC046178F1C796
:1001C000016520F30D0101E61003772C0000E70420
:1001D000C3372C28EC06C9240100053401000703AD
:1001E000214F4395671512B508F005000B66000016
:1001F00003081B65F301AC3479F30134088CA806BD
:100200001800A001A418140C0413FF7F091DB403E7
:1002100023FFFF124320010102FF83010001A10C13
:10022000D003D40700200001430408142002340145
:10023000002004523C041200011007942F00209863
:100240002700209C04C20001C0052001010000D04D
:100250002618520001100720050020200700200169
:1002600011C30100012002D8060020042200015021
:10027000026CDC020001500390060020030D100305
:1002800051DF00009904F301010001200250070032
:100290002017120001000220050020520001520028
:1002A000011200010002080000000300000000002D
:1002B000000000000000000000000000000000003E
:1002C000000000000000000000000000000000002E
:1002D000000000000000000000000000000000001E
:1002E000000000000000000000000000000000000E
:10100000B41200001810000015AB0110FDB3011060
:101010006DC00110FDAE011099B501100000000077
:10102000000000002D000000B01200003C10000085
:10103000B1C00110A9BF011067C0011069B801104B
:10104000000000000000000030000000B0120000AE
:1010500060100000BDC00110CDB30110D9BD01105A
:101060006DB301100000000000000000310000001E
:101070000000000044060020040000000000000002
:101080000000000020000000D02701003000000018
:10109000281000006406002004000000000000008A
:1010A000000000000C000000642F01001800000088
:1010B0004C1000006C06002004000000000000003E
:1010C00000000000240000007C2F01001800000038
:1010D00000000000AC06002004000000000000003A
:1010E0000000000010000000CC2801002C000000CF
:1010F00000100000C80600200400000000000000EE
:101100000000000020000000A42B010024000000CB
:10111000FFFFFFFFD00600200400000000000000D9
:101120000000000028000000C82B0100240000007F
:10113000FFFFFFFFF8060020040000000000000091
:101140000000000014000000942F010018000000AF
:10115000FFFFFFFF00070020040000000000000068
:101160000000000058000000C82601003400000004
:10117000FFFFFFFF08070020040000000000000040
:101180000000000010000000AC2F0100180000005B
:10119000FFFFFFFF10070020040000000000000018
:1011A000000000001C000000EC2B010024000000E7
:1011B000FFFFFFFF180700200400000000000000F0
:1011C0000000000038000000902A01002800000004
:1011D000FFFFFFFF80070020040000000000000068
:1011E00000000000540000008C2401003C000000BE
:1011F00001000000F83401000100000000000E00B2
:1012000000000F0032000000010000004C0600202A
:10121000000200000000000001C9011000000000F1
:1012200000000000080000000000220074060020FA
:10123000000000000000000008000000D8060020A8
:101240000000000000000000080000000000000096
:10125000000000000000000000000000010000008D
:101260002007002006000000010000008807002081
:10127000000000000000000000020000000000006C
:10128000290001002500300031002D00010001007F
:1012900004000000F0310100000000000000000028
:1012A000000001000000030013C40110ADDF0000C6
:1012B000B8120000B812000000000000BC060020B8
:1012C0004DDE00002000000014310100B82A0100AA
:1012D00029C101109B6200007F630000A1C70110BB
:1012E000A3C70110000000008E750000402201001D
:1012F000582201002822010002000900010000001C
:10130000010000005D2A0100312A01007D2E01004C
:10131000352701009D27010071220100D519010028
:101320009D300100C5DD0000E5DF0000E9DF0000C1
:1013300038B5054601F0DCF82C680CB1216829604D
:1013400001F0E6F8204632BD70B505460E462C6821
:10135000002030601CB901F0CBF82E600DE001F0E8
:10136000C7F800E0246821680029FBD1B44203D10A
:1013700001F0CEF8002070BD266001F0C9F8012010
:1013800070BD10B501460022DFF8500B00EB421093
:10139000C37F1C0603D5B0F91C308B4203D0521C0E
:1013A000082AF1DB002010BD38B504281DD1DFF874
:1013B000CC4A04F1EC05284601F0F8F8A8B128461B
:1013C00001F0F2F8DFF8B81A0A68504364280CD22A
:1013D000284601F0F9F8052001F036FA0120E077FF
:1013E000042104F14C0001F04BFD002032BD70B52A
:1013F000044601F07DF8DFF88C1A0546887D00B3BD
:10140000401E8875C0B2E0B9DFF8706A082100F0AC
:10141000F4F8B4B1B06B703001F0D6F8B06BDFF80F
:10142000601AC0680A68241AB4FBF2F1012906F1B7
:10143000EC0498BF0121204601F0C2F8204601F0DB
:10144000C1F82846BDE8704001F062B810B5044606
:10145000207B00F00F0002280FD100F018FDA168DA
:10146000081ADFF8181A8A6BD168800801F57A71BA
:10147000814238BFB0F1405F00D3002010BD38B5C5
:10148000DFF85C1ADFF85C0A0C68DFF8F0590440FA
:10149000E0430860A00606D54868810603D54FF4EE
:1014A000005100F0E6FD14F4602F09D0286904F41F
:1014B000602404432C6105F19C00BDE834403AE00F
:1014C00031BD70B501F014F8DFF8B0590446286951
:1014D00010F4602F25D02E69F601360EF00748BFB4
:1014E000002606D4B00748BF012602D4700748BFC3
:1014F0000226701D40B200F051FF2969012206F159
:10150000110082409143296100F0BEFC05EB86008A
:10151000446844B1286800224FF00063711DA04761
:1015200001E000F0B1FC286920B105F19C00BDE8A4
:10153000704000E070BD002101F0A2BC70B501F068
:10154000A5FCDFF83869DFF8E05B8107B16A1DD4DC
:10155000D1E90423104007D0F1628A691043886101
:101560004FF4804100F049F8B06A002844D1746A11
:10157000002C41D0E068B16B884222D006F14C00CB
:10158000BDE870404FF4805101F07ABC09B9B16AEE
:10159000EAE70022B262D1E904238C69104040F0EE
:1015A000020020438861686990436861E868984355
:1015B000E86006F13000FFF7C7FE022100F01DF8D9
:1015C000E5E7A068FFF742FFB06408B1B06CD1E076
:1015D000D4E904016A6902436A610020EA680A43A7
:1015E000EA60E861A0682860E8690028FCD006F19C
:1015F0002400FFF79DFEB46270BD06F14C0001F0BF
:101600003FBC0020F3E6F8B5074614463E6E1D4683
:1016100006B1B047A00708D4D7E9160120402940F9
:101620000022914208BF904207D0C7E91A4507F14E
:101630003800BDE8F24001F004BDF1BD704780B54F
:1016400001F01CFCDFF834280146906BD26BBDE83A
:10165000084010470421DFF8D40A01F011BC80B51E
:1016600001F014FCDFF8C81A084204D0BDE80440B9
:101670004FF00051EFE701BD70B504005AD0A168EA
:10168000202000291CBFC2B2002A59D00A8840F687
:1016900003039A421FBF40F604039A424968401E62
:1016A000EFD148E000224FF08043B4F91C10E0680D
:1016B0006568A84700F01CFFDFF8C0570646E88EB3
:1016C000401CC0F30B00E8860020296BC87705F1A9
:1016D0003000FFF72DFE304600F01AFFB5F9360056
:1016E000E26802F19403B3F90010884202BFDFF808
:1016F0009407017D00291DD1987808B9106810B9A8
:101700000020987036E0A96B0B6813F1010F11D01F
:10171000DFF86C572968B0FBF1F1012998BF01216E
:1017200002F1700000F04CFFE068BDE870407030DE
:1017300000F048BF70BDE0681822203001F0D0FCF6
:10174000A2690020A06160680028B3D0E07F002378
:1017500000F00700012842F0020207D00228A1D0C1
:10176000042804BF00224FF080539EE700224FF070
:1017700000539AE7BDE8704039E638B50D46A80732
:10178000DFF8F84619D5206BFFF776FF206B25F0C0
:10179000020510B145F0020109E0680702D4606A51
:1017A000002854D004F1EC0000F00EFF042104F1F5
:1017B0004C00BDE8344001F063BB680747D5012009
:1017C00084F82000042001F03FF8DFF86809016880
:1017D0000A6B90472064606A08B1C068A063A06B80
:1017E0004168DFF854090A780260022001F02CF801
:1017F000112001F03EF80120E076A06B017C002969
:1018000019BF607E00280E2001F033F8A06BDFF8CE
:10181000182940688168002904BFC068002804D0E6
:101820000021D161DFF84C0A106040F2FF70DFF850
:10183000481A086000219161DFF8F40850610FF246
:101840001100E0631920BDE8324000F053BE31BD05
:101850002DE9F0430446880085B040F19380DFF81D
:101860001C56A86B4068406800B18047A86BDFF841
:10187000B88842689068002804BFD16800290DD05C
:1018800000F0A7F8906800B18047A86B4068C06876
:1018900000B18047DFF86C0A01F0FBFA0020C8F8BD
:1018A0001C0040F60A09DFF8600ADFF8D875C8F8AE
:1018B0000000012001F027FB0FF28110E8630021F6
:1018C00000207880A7F8009000F00CFA787B00F0F8
:1018D00003FAA26816467180697E09B1607CA0B1E6
:1018E000108840F60201884218BFB0F5C15F05D1EB
:1018F000318A4FF60F400140318204E0318B4FF6C0
:101900000F4001403183002060746946104601F0A9
:10191000E7FA684601F0F2FA7068B0B30188494509
:1019200018BF0646F8D130E0208C00283FD00021B7
:101930006184616204F12C004278017802F0F002C7
:1019400001F0F00142F001020170427004F1200048
:101950007860787B00F0F000787328E0DFF8801A78
:101960000A68136801209847012808D0707B00F0AE
:10197000F00040F0010070730FF26900E863A068A6
:10198000C8F8000005B0BDE8F083776040F60301B9
:10199000707B00F0F0007073686A8068008888428D
:1019A0001CBF40F604018842BED10020286400F02C
:1019B00010F84FF6FF30A1680A8A02400A82E87FD9
:1019C0000028CBD001F0DAF80028FBD001F0E7F8CE
:1019D000D5E7D8F81C000028FBD00021C8F81C105F
:1019E00070470000DFF8FC29114200D17047DFF892
:1019F000F019012010B50A68DFF880441368984791
:101A0000012808D10FF23500DFF81C17E063DFF87A
:101A10007404086010BDDFF8682410683221B1FB3F
:101A2000F0F1012998BF0121EC34204600F0C8FDF7
:101A30002046BDE8104000F0C5BD00002DE9FE4F76
:101A400006460C466004DFF8345419D500F050FD0A
:101A5000EE6AB769B9070ED46EB10021B16100F02A
:101A600057FD706848B1B6F91C10F06876683A46C0
:101A70000023B04701E000F04BFD24F4804425E151
:101A8000A0070AD5286BFFF7F7FD286B002824F084
:101A9000020401D044F0020418E1A00005F180081E
:101AA00040F60909DFF8DC73DFF888B676D595F8DB
:101AB000200028B1042000F062FE002085F82000FC
:101AC00040F60202B0680188914218BFB1F5C15FCB
:101AD00005D1028A2D2161F30912028204E0028BF2
:101AE0002D2161F309120283286CD8B1DBF8541060
:101AF0000A6804209047A8B1DBF80000016B884712
:101B0000296C814228BF401E401A718A11EB1030A7
:101B1000F06040F2D171A0F5FA70884224BF40F61F
:101B2000C410F060787B10F00F0F04BF708C484534
:101B300008D1D6F818C000224FF000736FF48071FE
:101B40003046E0470022DFF8A818404600F0D6FCF7
:101B5000A87E50B10221ADF80010684601F099F955
:101B6000BDF80800A8820020A87601202876002170
:101B7000B87D401CB875E976686A18B1192000F084
:101B8000BBFC01E044F002043046766900224FF0CD
:101B900080630021B04724F0005497E0A87F24F030
:101BA000080A20B1210703D50020A8777BE0200791
:101BB0007BD5E87F20B10021E977052000F0DFFD2B
:101BC0000020287601202877002001F09CF90022CF
:101BD000DFF82018404600F091FC697E09B1A87E2C
:101BE00010B10121697612E0A86C002834D0DBF82E
:101BF0000010086B8047296C6A6C401A02EB1032A7
:101C00006A64A86CC001904226D200216964DFF8A2
:101C1000E80701680A061FD5787BA7F8009000F056
:101C20005BF800210020788000F05CF800F060FC98
:101C3000DFF8F4144A6922F002024A616FF00202EE
:101C40000A610F600B699C07FCD50A614A6942F082
:101C500002024A6100F05CFC0020286401F026F9D1
:101C6000DFF8141600200860022000F088FD112023
:101C700000F09BFD307C10B90E2000F096FD002096
:101C8000A883787D18B906F1380001F0DAF9DFF899
:101C90006C07E863F87D30B10021F97505F14C005F
:101CA000042101F0EDF8544610E0A0040ED5AE6A10
:101CB000002E1CBF7068002806D0B6F91C10F06812
:101CC000766800222023B04724F4005414B1214642
:101CD00000F0CFF9BDE8F78F00F0F00040F0010010
:101CE000787370477960387B00F0F0003873704784
:101CF00030B585B000F0B0FCDFF80407DFF804472A
:101D000001685E4D41F002010160684601F08BF808
:101D1000A078DFF8F41602906A4605F14C0001F055
:101D20008AF8684600F0ECFB2178DFF8C8260191BC
:101D300000208DF808006B46192105F1800000F0A5
:101D4000B4FB684601F06FF8E078DFF8C016029047
:101D50006A4605F19C0001F06EF8684600F0D0FB81
:101D600001208DF808006B466078DFF8A42601900A
:101D70001A2105F1D00000F098FB00230022DFF8C3
:101D8000941605F1EC0000F0ECFBDFF87006DFF8CC
:101D90008826E8630023042105F5887000F0DDFC47
:101DA0004FF6FF70A88205B00120A8760020E875E4
:101DB0006876E876E861286485F8200030BDF0B5E3
:101DC00000298BB0064615461C4653D0DFF84C065A
:101DD00000680A78D040C0074CD5002D716049D00A
:101DE0000021284601F090F8B56000F081FB254FF6
:101DF0000546787D00283BD1FFF77AFF787D401CAF
:101E0000787500F0A0FA34B903A80FF24C611C22D7
:101E100001F066F903AC2068DFF8041630600A466A
:101E20006068F060207C307401207074608A708279
:101E3000E06800B10146B161A06800B1024672617C
:101E4000782106F1200001F0B3F9002106F13800F5
:101E500001F0C1F8684600F0B0FB02966B46002224
:101E6000DFF8C01506F1700000F07BFB304602E0A1
:101E700000F069FA00200BB0F0BD0000BC27002084
:101E8000482A0020E0280020204600F041BBD0B5C1
:101E900000F02EFBDFF89025117E31B1DFF88C25A4
:101EA000146800F035FB2046D0BD00F031FBA1489E
:101EB000DFF87C4501680A6B904710F50032DFF8C7
:101EC000740541F100030169A4FB0267002004FBD3
:101ED0000377321847EB01031846D0BDC80B00202A
:101EE0000810044020000E002DE9F84F04460E466D
:101EF00092469B46DFF8305500F0FAFAB5F93410F7
:101F00008046B5F93600091AC1F30B0108296FF0B4
:101F1000010949DAA88EDFF82015401CC0F30B0038
:101F2000A886B5F93400ADF800000020420101F1A7
:101F30001F039B5C1F0640F18C80401CC0B2082828
:101F4000F4DB002704F1700000F03EFBBE6087F870
:101F50001EA0C7F804B02021BDF80000B883FC60C3
:101F6000DDE90AABDFF8D4040AEA00000BEA01015C
:101F7000C7E9040194340020F87740F6FF76686AD8
:101F80000028394605F1240006D0FFF7DDF930B10D
:101F900000F061F840464FE0FFF7D6F940B9A88E4F
:101FA0003618C6F30B06AE8600F01EFA48464EE021
:101FB00000F051F8697FDFF87C4400291CBF287EBF
:101FC000002807D0002001216877A876A977A07D96
:101FD000401CA07500F008FAA96A002935D1287EB6
:101FE00018B1192000F088FA2FE0E87E68BB00F0F5
:101FF0007FFA0646287F10B10121E1751BE0B86821
:10200000FFF724FAA864D0B1A86BDFF83414C068D5
:102010000968AA6C121AB2FBF1F2012A83BFAA6CFA
:10202000101AB0FBF1F10121EC35284600F0C8FA96
:10203000284600F0C7FA304600F06AFA05E030465C
:1020400000F066FA042100F014F8BDF90000BDE8C4
:10205000F28F8F1876E7BDF800002080F87F40F0FF
:102060008000F877A078012802D10021A170A9761C
:10207000704705F14C0000F003BF2DE9F041054623
:102080000C4616461F4600F0F7FE80462046FFF736
:1020900078F9040003D1404600F0F6FE0AE0E07F44
:1020A00010F0070F09D0404600F0EEFEE07F10F080
:1020B000070FFBD10220002112E06168DFF88403E2
:1020C000814202D0616829666060C5E916674046B2
:1020D00000F0DAFE00F006F800202866D5E91A01C3
:1020E000BDE8F0814FF0FF3105F1380000F0A0BFEE
:1020F000DCB5DDE906670446CDE90067180008BFD6
:10210000DFF840332046FFF7EFFE002803D500201C
:102110004FF00041DCBD0146204602B0BDE8D04092
:1021200002224FF0E043A8E70010044008280020F6
:10213000020000408C010010D021084001E042F074
:1021400002022DE9F843DFF8E052686A00900F467A
:102150000326144600F0CCF917F1010F04F0010832
:10216000814609D1A86A002819BFA96AB1F91C7073
:10217000EF8E7F1C0020E87538B2FFF702F90100EE
:1021800069D0A86A814204F0020426D11CB1686AB1
:10219000009000226A620122C87F02FA08F210430E
:1021A000C87700F069FE0646B8F1000F14BFDFF8EB
:1021B0009802DFF8980200F06CFE00F06BF824B98A
:1021C00006E000F05BF800F060F800980028F8D115
:1021D000304600F059FE83263FE00098884205F122
:1021E000EC0316D1184600F0EFF9002C12BF0020C6
:1021F000686A0068686200F04DF8009800F03EF8E8
:1022000000F043F8009820B3002CF6D121E01268CA
:102210000092009820B3024610688842F7D1184611
:1022200000F0D2F9009800681CB1009A00211160FA
:1022300004E00168009A116000220260009003E04F
:1022400000F01CF800F021F800980028F8D100F008
:1022500021F8832606E000F01DF83046BDE8F28341
:1022600000F018F8E87E0028F7D10221FFF701FFFF
:10227000F3E700005100070600000460C17F41F051
:102280000401C1776846FFF753B8014605F13000F5
:10229000FFF75AB8484600F03BB90FF2BC111C22B8
:1022A00000F01EBF38B5044600F022F9DFF87811BF
:1022B0000546087E68B1204600F0EBFD044600F0BC
:1022C00042F804F0FF04012C01D1812032BD02202C
:1022D00032BD00F038F8012032BD0A46DFF848115F
:1022E0008B6B984201D00320704707E00A46DFF865
:1022F00038118B6B984201D00320704700211046A3
:10230000D0E700000100070601010E0470B5DFF8F8
:1023100018118A6B90426FF07F0412D1087E80B151
:1023200000F0E6F80546DFF8280100F0B2FD0646A9
:1023300000F009F806F0FF00012802D1360230163D
:1023400070BD204670BD284600F0E2B870B50E465C
:10235000154600F0CDF88324334A1EB1022E0ED06C
:1023600006D30FE0916A41B1926A918B29800AE00D
:10237000917E11B9928A2A8005E0802403E0117EC3
:10238000297000E0032400F0C3F8204670BD80B53A
:102390000846FEF7F6FF00B1806802BD38B5044676
:1023A00000F0A6F8204AD17D4B0702D5937D9C42D0
:1023B00012D00123958A03FA04F10D432549958231
:1023C0000C340A6803FA04F422EA04040C60096875
:1023D00011B9184B00221A75BDE8324000F098B8C8
:1023E000E001001004000020404600F091B8000019
:1023F0003D1500005F160000000004407B17000040
:10240000002009400C3501003F160000C3140000F5
:102410007F14000055160000A9130000D4210840C5
:102420003D16000003160000BC27002004300440C5
:1024300000093D00E0280020C80B0020F1EFFF9FBD
:10244000482A0020071600000100020401000104D0
:10245000010003040C100440FFFFFFFFC40900004B
:10246000000000000000000001001A010000000050
:1024700000000000DFF800F085BF0110DFF800F079
:1024800061C00110DFF800F079BF0110DFF800F043
:10249000A9C00110DFF800F089AF011020B10823B6
:1024A00030220021FFF7EEBF7047F0B51C008DB061
:1024B00005460E46174603D1002300F09FFE0CE0B0
:1024C0006846FFF7EBFF206805906B466068089050
:1024D0003A4600F005F800F091FE28460DB0F0BD38
:1024E000207AADF81800314628467047FFF7CEBF76
:1024F000FFF7C0BFFFF7CEBF00F0A0BE00F0A8BE40
:10250000002101604FF0FF314160012101727047ED
:10251000FFF7B4BFDFF800F0C1BF0110DFF800F033
:102520009DB20110DFF800F0B9BA0110DFF800F039
:10253000E5C00110DFF800F01FBE0110DFF800F069
:1025400069B20110DFF800F0DDC00110DFF800F023
:1025500091BE011020B1082324220021FFF7DABF29
:102560007047F0B51C0089B005460E46174603D1EA
:102570000023FFF7E3FF0AE06846FFF7EBFFA068E0
:1025800006906B463A4631462846FFF7D7FF0F487C
:102590000F4A01681160284609B0F0BDFFF7D2BFAD
:1025A000FFF7D4BFFFF7BABF00F055BE80B500F00B
:1025B00069FE00B10120C0B202BD002181607047F8
:1025C000FFF7B4BFFFF7B6BFFFF7ACBFF4340100AD
:1025D000482A002070B5DFF8644782B001200090DF
:1025E00009232568DFF858076E684FF40072002150
:1025F000B04773BD70B5DFF84447DFF8440725687E
:10260000EE68002301223421B04700B10120C0B29E
:1026100070BDDFF8300780687047DFF8281708447E
:1026200090F8EF00704702460020022904D1012AE9
:1026300006D140F2EE207047012A08BF4FF47A70AD
:102640007047DFF8001791F8E60020B1D1F81001CB
:10265000002818BF004770472DE9FF41DFF8E486E6
:1026600008F1E105A879002873D1DFF8DC16DFF85E
:10267000DC660A689209012002F00102A871EA7181
:10268000307BDFF8CC7668717068C8F8100101A85B
:10269000FFF793FF002102918DF80410039101AB25
:1026A00000220FF2295108F10C00FFF75AFF01AB8D
:1026B00000220FF2D55108F13000FFF752FF01ABB5
:1026C00000220FF20D5108F15400FFF74AFFB168E4
:1026D00001208847DFF87C0601787868C0F38154D0
:1026E000707B20B1032C02D10121297003E0032C5F
:1026F00018BF022C16D1022000F0A6F8DFF85816F9
:102700000A68032C0CBF4FF47A7042F21070B0FBD1
:10271000F2F108F15400FFF753FF08F15400FFF7FE
:1027200051FF10E0012C0ED1DFF81046032000907D
:102730001C232568DFF808066E684FF04052002120
:10274000B047FFF747FF386840075CBF002000F044
:102750007BF8002004B0BDE8F08138B5002408B152
:10276000150002D16FF0020407E08160C2600361CE
:102770000146DFF8D00500F091FD204632BD10B5CE
:102780000446FFF7B5FEDFF8BC150A1992F8E930E8
:102790005B1E82F8E930DBB233B98A68012303FAA1
:1027A00004F422EA04048C605FE0F8B50546FFF704
:1027B0009FFE0446DFF88C15481990F8EF20521E52
:1027C00080F8EF20D2B27ABB0FF2D850DFF88C75C8
:1027D00000EB850210F825505688280615D5396873
:1027E0000A6A304690473A68916A304688473968A5
:1027F0000A6B30469047DFF8681501200860DFF863
:10280000641508688007FCD507E0680611D501EB60
:1028100086010020D1F80421904705F03F053F2DA7
:102820001CBF2846FFF7C1FF2046FFF771FE0020BE
:10283000F2BD39688A69304690473A68516B304634
:1028400088470228F9D1E8E710B50446FFF750FEA3
:10285000DFF8F0148A680123A3401A438A602144F8
:1028600091F8E920521C81F8E920FFF751FE002081
:1028700010BD2DE9F0410746FFF73AFE0546DFF8A7
:10288000C464F01990F8EF104A1C80F8EF2049BB9F
:102890000FF2105818F8270000F03F003F2818BF2B
:1028A000FFF7E7FF08EB8700448818F82700DFF8F8
:1028B000AC7401060ED53968CA69204690473A685B
:1028C000516A204688473968CA6A2046904700F016
:1028D0001AF807E040060BD506EB84010120D1F879
:1028E000042190472846FFF713FE0020BDE8F08141
:1028F00039684A69204690473A68516B20468847B4
:102900000128F9D1EEE7DFF8581401200860DFF85C
:10291000541408688007FCD570472DE9F84F074626
:10292000DFF82404DFF844540168002600244A0636
:10293000A0460DD5287B58B9DFF83404DFF83414ED
:1029400002680A4042F081720260202000F075F9AE
:10295000012F18BF6FF0010957D12868012852D103
:102960000221296000F041FD012000F066F95FEAD4
:1029700000094BD100F080FADFF8FC13DFF8DC73BC
:1029800000900C600120B96A0A689047012803D1C1
:10299000002000F0A8F90124DFF8E013DFF8C8A355
:1029A000DFF8DC230E60DAF80010907808B14FF001
:1029B0000108517809B148F00208107808B148F0D0
:1029C0000408A87F20B139680A6B4FF480609047F3
:1029D000687F20B139680A6B4FF481609047DFF857
:1029E00080130120086048F0200039688A69904708
:1029F000DFF8901301200860DFF84813087AC10758
:102A000009D501261FE06FF004097DE00120286050
:102A100000F0F6FC78E0396ADFF86C038A689047CA
:102A20008346BBF1040FF6D0BBF1010F05D13A6A22
:102A3000DFF85403536803219847DFF85003016817
:102A4000890889000160002000F0FEFCDAF800002F
:102A50003868816B884776B9BBF1010F05D13A6AB6
:102A6000DFF82403536801219847DFF82003016849
:102A700041F0030101600120DFF8001308604046C7
:102A800039684A699047A87F20B13968CA6A4FF40B
:102A900080609047687F20B13968CA6A4FF48160CE
:102AA0009047AF49B74A0120086000211160032018
:102AB00028603A68516B404688470128F9D1DAF816
:102AC0000000042000F0B9F80646AB490120086078
:102AD000DAF800109C4908688006FCD514B1012082
:102AE00000F001F900F000FE082000F0A6F806430F
:102AF00001202860009800F0C7F900F07AFD00F08E
:102B00007FFC0EB14FF0FF394846BDE8F28F38B573
:102B10000446FFF7EDFC054621468A4800F0D2FB4B
:102B20002846BDE83240FFF7F3BC3EB5002401283B
:102B300004D020D303281CD017D31CE06846FFF72D
:102B40003CFD804D924901948DF8004002946B4603
:102B5000012205F17800FFF704FD00238D4A2C21A6
:102B600005F19C00FFF7A1FC05E000F0D9FD04464B
:102B700001E000F099FE20463EBD000038B5FFF7A9
:102B8000B7FC7049054691F8E000012410B1FFF749
:102B900031FD04462846FFF7BBFC204632BD70B528
:102BA000FFF7A6FC044601F00EF86649002081F804
:102BB000E000664885680220A8470646102000F01D
:102BC0003CF8012E04BF0320A84787E070470000AF
:102BD00038B55A4CE16B0A6804209047022818BFA8
:102BE00003280FD1032000901C23246854486568F3
:102BF0004FF040520021A847FFF7ECFCBDE83240FF
:102C00000220BCE56448544900680A684D4CC0F392
:102C1000815003280CBF4FF47A7041F28830B0FB2A
:102C2000F2F104F15400FFF7CBFC04F15400BDE8CD
:102C30003240FFF7C7BC0020704738B50546414C0D
:102C4000204600F021FB88B9204600F023FB044613
:102C5000A068284205D02269E368002128469847E9
:102C600030B9204600F018FB0400F1D1002032BD3D
:102C70004FF0FF3032BD494901280CBF40F2FF70D0
:102C8000002008600020704770B5FFF731FC2D4E22
:102C90002E4D044696F8E00028B100F094FF70B184
:102CA000002086F8E0000220AD68A8470646102004
:102CB000FFF7C3FF012E11D10320A8470EE02649DC
:102CC0000A683220B0FBF2F101B9012106F13000AF
:102CD000FFF776FC06F13000FFF774FC2046BDE8F4
:102CE0007040FFF715BC38B5012823D12C490A687C
:102CF0001368984701281DD000F058FF114D01209E
:102D000085F8E000287A810616D41348026832213B
:102D1000B1FBF2F404B9012405F13000FFF754FCD3
:102D2000214605F13000FFF74BFC05F13000FFF7BD
:102D300049FC01E000F06DFF002032BDA40100104D
:102D400000A00C40080800201410094010320100B7
:102D5000B03F0050BA2F0020482A0020B8010010D0
:102D600028200860282008402C200940E408002082
:102D700004000940FFFFFCFC0C4009400002224314
:102D8000060900208001044300400340242208403B
:102D9000F139000085370000B43F005000000460A6
:102DA000E00100108F0000008F0001008F00020082
:102DB0008F000300900000018F00010190000002CD
:102DC000900000038F0001048F0000058F000804AD
:102DD0008F0000048A000006510000007F000100FF
:102DE0003F0004003F0002003F0001007F0002009E
:102DF000DFF800F011BF0110DFF800F011B0011092
:102E0000DFF800F015C00110DFF800F015C1011067
:102E1000DFF800F005B3011020B1082328220021BB
:102E2000FFF7EEBF7047002101604160C1604FF0C5
:102E3000FF318160704770B514008AB005460E46B8
:102E400003D1002200F030FF0CE06846FFF7E4FFFA
:102E5000206804906A4660680590314600F004F8E6
:102E600000F022FF0AB070BDE0680790A0680690ED
:102E700028467047FFF7C8BFFFF7BABF00F020BF72
:102E800000F024BFFFF7B8BFFFF7C2BF384908689A
:102E900067E0384A11680029FCD10023D361106033
:102EA000D0690028FCD0D161506870473248016871
:102EB00021F0020141F40071016003212F4881607B
:102EC00041F2300141610121C16050214161012184
:102ED000C1604FF4CA6141610121C1600160704766
:102EE000274802680A6082684A60C2688A60406B4C
:102EF00020F0784040F08050C860704701461022B2
:102F0000204800F0DDB87047FEB50188B1F5C15F1B
:102F100018D142691C4F0092002382690192C06956
:102F200002901A480268C2F303625DF8230098B168
:102F3000002550F82560BE4206D06D1CEDB2042D70
:102F4000F7DD09E00120FEBD042D05DC26F4702428
:102F500044EA024440F825405B1C032BE5DB0020DB
:102F6000FEBDC2430A600A680242FAD170470000FF
:102F700010100440001004400000046000410440B0
:102F80004C130050180000210200F8445413005064
:102F9000DFF800F009C00110DFF800F0D1B2011035
:102FA000DFF800F0059B0110DFF800F0E1A301104D
:102FB000DFF800F05DB40110DFF800F009C1011086
:102FC000DFF800F00DC1011020B1082324220021F8
:102FD000FFF7DEBF704730B589B004460D4600F0FC
:102FE0000BF801218DF818106A4629462046FFF794
:102FF000DFFF204609B030BD6846E5E710B58AB06E
:103000000446FFF7F9FF01218DF818102046034A06
:103010006946FFF7C1FF0AB010BD0000240600207A
:1030200080B500906846FFF7C7FF01BDFFF7C8BF36
:1030300080B5FFF7B5FF10B96FF0010002BD0020A9
:1030400002BDFFF7B1BFF0B40246106895681318CF
:10305000506803EB5004C00721D54D441FE0F0BC7D
:1030600002F10C00704713F8017B05F8017B491E43
:10307000F9D1A0B1B60813F8011B06F00306032E20
:1030800008BF13F8016B01EB06214942801C29445B
:1030900005D011F8016B05F8016B401EF9D1A34270
:1030A000DDD013F8016B16F0030104BF13F8011B08
:1030B000C91C30090F28DAD113F8010B0F30D6E7FD
:1030C00062B38B0708D0521E11F8013B00F8013B98
:1030D00000F024808B07F6D1830740F0208000BFEA
:1030E000103A07D330B4B1E83810103AA0E83810DD
:1030F000F9D230BC530724BFB1E80810A0E808108B
:1031000044BF51F8043B40F8043BD20724BF31F8D8
:10311000022B20F8022B44BF0B7803707047121F5C
:1031200017D35B0009D151F8043B20F8023B1B0C7C
:10313000121F20F8023BF6D20BE051F8043B00F8D6
:10314000013B1B0A20F8023B1B0C121F00F8013B3D
:10315000F3D238BF121D521E24BF11F8013B00F8F4
:10316000013BF8D870470268920841EA82028B0856
:1031700022F0040203F0010342EA8302CB0822F0AA
:10318000080203F0010342EAC3020B0922F0100215
:1031900003F0010342EA03124B0922F0E00203F0BC
:1031A000010342EA4312890942EA81120260704730
:1031B000002200F0ABBD024681B01078022903D195
:1031C000517800EB012013E0032906D15178927861
:1031D00000EB012000EB02400AE0042908D15178FD
:1031E000937800EB0120D17800EB034000EB016005
:1031F00001B07047DFF800F0BDAA0110F8B5044631
:103200000B480C4F0668F8690D4650F82500B0428F
:1032100009D1094800902046FFF7ECFFF86950F803
:103220002500B04201D10020F2BD2046F2BD00BF12
:10323000181200004401002024060020102803D3A7
:1032400002491038C1F8000F704700BF00E000E0ED
:1032500081604260704770B5044600F079FD064613
:10326000A08A0025012808D1FFF758F90546E06833
:10327000451BA068A84238BF0025304600F069FD14
:10328000284670BD808A7047006808B901207047E1
:1032900000207047006870470068704738B50446E2
:1032A0000D46FFF725F900212960616869606168B2
:1032B000002914BF0D6025606560FFE7BDE832405E
:1032C000FFF726B90A684B68002A0CBF43605360B9
:1032D0004A6809680AB9016070471160704710B503
:1032E00001688A089300CC0801F0030003F004038E
:1032F000E20018430B0902F008021C0110434A09BE
:1033000004F010045301204303F0200318438909FB
:1033100040EA8110C0B210BDDFF800F031BF0110EB
:10332000DFF800F0F5B7011030BF7047FCE738B5A3
:1033300000F0D6F900F087F9FFF76BF9044604F0C6
:103340000C000C284BD0600721D400F035FD054659
:1033500001210120FFF767F92F49096801FB05F2F8
:10336000904214D2F020B0FBF1F02C4C291A04F159
:103370000C00FFF7DBF804F10C00FFF7DBF801208D
:10338000FFF7CBFA04F10C00FFF7CCF829E0200797
:1033900025D4234D2348296A8A6890470428F8D009
:1033A000E206214900D420B9086840F00100086015
:1033B00003E00A68520852000A601C481C4C01686D
:1033C00041F00301016020202A6891698847206844
:1033D0002868816B884701212160206801E0FFF7A0
:1033E000A5FFBDE8314000F07FB910B5114CFFF7E3
:1033F00093FF20601048006808B18047606010BDEE
:1034000010B50E480B4C016809B160688847206808
:10341000BDE81040FFF784BFF43401000808002025
:10342000B8010010004003408C21084024220840CD
:103430002C200940282A0020D0340100D434010077
:103440001628A8BF203870472DE9F84F80469448C9
:10345000DFF850920168944E8A0705D50820B071B4
:103460009248C9F80000C2E0914801680A68904794
:103470008246904805682F1700247F1CA80208D4B4
:10348000CAF13E00C0100828C8BF08208742B8BF54
:10349000074689480168C1F30460FFF7D1FF8346FE
:1034A00086480168C1F30440FFF7CAFF5F44152F47
:1034B0000146C8BF152704DC6FF009008742B8BF7A
:1034C000074607F01F007E4A40F4F85010807D4AFE
:1034D000106810F0030F18BF0124400748BF44F0E4
:1034E000020496F90700B8F1000F18BF44F0040475
:1034F000AAEB0000042802DCB27994425DD0AAF164
:103500000F084FF0000BB8F1000FDC4604F0040088
:103510006D4B24D408EB08184FEA282CBCF1070F98
:1035200088BF4FF0070CE646BEF1070F28BF4FF0EB
:10353000060E1A1D52F82E2053F82EE0A2EB0E0EA6
:103540000EF0FF0B10B1CEF307229344A20744BF45
:10355000CEF307429344E20748BF0BEB1E6B53F8D0
:103560002C2002F0FF0310B1C2F30720C318A007FC
:1035700044BFC2F30740C318E007A8EB0C2048BFC4
:1035800003EB126300FB0BF0CF1B8030002F03EB2B
:103590001023D8BF0127342005F0FF0547437D43A2
:1035A000B5FBF3F04FF6FF71884288BF08460AF377
:1035B000070AB08086F807A0B47144480168B08853
:1035C000316000211F2804D21F20B08004E0400891
:1035D000491CB0F5007FFAD20F38000941EAC0015A
:1035E0003B480143C9F800100020C9F80400BDE8B9
:1035F000F18F10B537480468A4B21CB32C48016899
:103600000A689047284991F90720904205DA6FF03F
:103610007F029042B8BF1046C8718888844210D398
:103620002A4A13680A689A1A921C1F2A88BF1F2206
:10363000241A5208D4402418B4F5803F28BF4FF60E
:10364000FF748C8010BD2448006800B9704730B505
:1036500022498A6802F04063B3F1406F1FD0104BDB
:103660001C68A5071BD44C68A50718D41C680968FA
:10367000C1F303511C31090114F0050F04D0884235
:103680000DD224F0050409E0814208D2100158BF90
:1036900044F00104500158BF44F004041C6030BDE4
:1036A0000000094030100940602A0020FDFDA40000
:1036B000EC010010B43F0050B81200503C11005013
:1036C0006E620840242208409C13005008200940E4
:1036D00000E7A4803410094028500940AC3F005056
:1036E000EFF3108072B67047EFF3108062B6704748
:1036F0000138FDD17047704710B50C18FFF7F0FF87
:10370000411E8941C90FDFF8602410680028FCD0F1
:1037100024680123136009B1FFF7E6FF204610BDBE
:1037200038B5DFF8485428780024002802BFDFF8B5
:103730004014887B00280CD0FEF7DAFE0146A878FA
:10374000002806BF0122AA7001240846FEF7E0FE09
:103750000CB1002032BD0220FFF776F80E20FFF7F3
:1037600088F8DFF81014086808B1012032BDDFF8CE
:1037700008044022C26002600120C8610020687015
:1037800032BD00002DE9F041DFF8EC1382B00020DB
:103790000860DFF8E81301F1D804A07A002837D0D8
:1037A0000128DFF8DC53DFF8DC2332D1DFF8D8134F
:1037B00016684BF2F52046430868360AC0F381408C
:1037C00001280BD1A86C0168884700F03AFA00F094
:1037D00053FA3509C010454306EBE536607B10B15E
:1037E0000021617306E0DFF8A403006820F07F4049
:1037F00036187608DFF898030660360C466001211B
:103800008160DFF86C13887B002849D00521217383
:1038100048E0022809D11568284600F00CF9A5F205
:10382000FF55032D3CD308203BE003283AD1106814
:1038300001F1B806A0F5C0603168F061002948BF09
:103840004942002848BF40428142A8BF002026DAF2
:103850007068D04F80B200900823D5F800C0DCF823
:1038600004804FF47F4230213846C047B06880B2B0
:1038700000901223D5F800C0DCF804804FF4F80261
:1038800004213846C047B06980B200900A232D68F1
:103890006E684FF4406220213846B0470120207006
:1038A0000B202073BDE8F3412DE9F843DFF8CC820B
:1038B000B94EDFF8E092B94CB94FAF4808F1E105D5
:1038C000E9784A1E0B2A00F29280DFE802F0063007
:1038D000415F74415F74415F7B8031680A682020DA
:1038E00090470F20E060072341F61D5020614FF400
:1038F000C072022000900021D6F804C0DCF8044019
:103900004846A04776684846D6F80C9007234FF4FF
:10391000C0720021C847012038600220E87008F119
:103920007800BDE8F243FEF74DBEBDE8F18301200B
:10393000E061287800281DBF00213961032006209E
:10394000E870032020600020786078688107E6D462
:1039500070684668E878032808D1022100910523A1
:10396000602200214846B04704200BE00020009070
:103970000523602200214846B047E87806280CBF9E
:1039800007200A20E87001207860C8E7042903D1E5
:103990002021A161012105E001220A29A2610CBFB9
:1039A000032102216970002121600821C1600160AA
:1039B00001202060B9E705290CBF06200920E87026
:1039C0000020E1E70020386078600C20A6E70021A5
:1039D00001600120674908600E20FEF7E6FE022024
:1039E000FEF7CDFE0120E8700020A8709DE7FEE7FD
:1039F00062496B4891F8E420921E0A2A1AD8DFE83F
:103A000002F0060A0E190A0E190A0E1912000268AF
:103A10009107FCD548E741688A07FCD4FAE741687A
:103A20008A07FCD5F6E702689107FCD441688A074B
:103A3000FCD4EFE7FEE7F8B50446564D30212846A2
:103A4000FFF75AFE4D4F07F1B806C0F3072070602C
:103A500004212846FFF750FEC0F38440B0602021C7
:103A60002846FFF749FEC0F38120B4F5C064B06179
:103A7000346003D1002087F8D800F1BD316997F890
:103A8000D80028B97068B168F060F461B0697061FD
:103A9000F06900284CBF6FF00102022200EB4000E9
:103AA0001018421000EB927001EBA0017268F260F6
:103AB000002912DC7069032805D111F115021100EB
:103AC0001EDA00211CE011F10B000100B8BF00213B
:103AD000521E48BF0022F26007E01E2912DD706905
:103AE00028B915391E29C8BF1E21032009E00B394A
:103AF0001E29C8BF1E21521C3F2AC8BF3F22F260A8
:103B000000207061316108231D4CF06880B2009084
:103B10004FF47F422768D7F804C030212846E04799
:103B20000120009011232768D7F804C04FF4003219
:103B300004212846E047306980B2009012232768AC
:103B4000D7F804C04FF4F80204212846E047706912
:103B500080B200902846246865680A234FF44062CA
:103B60002021A847F1BD000000800C40E90800209A
:103B70001032010004800C402C500C40080800203A
:103B8000A401001008400C40B43F00501020094030
:103B90003C600C4000A00C40A001001000400C4014
:103BA00034600C403748006800F01EB910B5374C3F
:103BB000626D53680121032098472068C16A8847D5
:103BC0003349886010BD70B5304C616D0A680120C2
:103BD000904701281BD0A5692B48EE6800230122DD
:103BE0003421B047A0B1FFF7DDFF2068C16A8847E4
:103BF000274B9A6827491C68D860A4EB9404801A64
:103C00004843000C1860A04238BF204618600120CD
:103C100070BD38B51D4C626D536800210320984774
:103C2000616D0A680120904708B1FFF7BBFF20686B
:103C3000174DC16A88476860206E0168884728610F
:103C400031BD10B501461448144B02681B681004BE
:103C500000161B394843C01000EB2240120601FB3E
:103C600001F412161B06624361431B1600EBA220EF
:103C7000594300EBA14010BD00FB00F1C0EBA15087
:103C800000B270478000001000A00C408C010010B2
:103C90004C2A002040420F0090130050A410005006
:103CA000DFF800F079AD011010B50446034BFFF7C3
:103CB000F7FFA06800B1204610BD00BF2406002019
:103CC00001488068704700BFC801002038B504462D
:103CD0000D4600F048F8616A0D43656200F044F853
:103CE0002046BDE83240FFF787B88268521C8260E8
:103CF000426832B10268531C036011704168491E6A
:103D00004160704762F30F2262F31F4200B500BFAB
:103D1000130096469446103928BFA0E80C50FAD8F4
:103D20005FEA417C28BF0CC048BF40F8042BC9079C
:103D300028BF20F8022B48BF00F8012B00BD0170FE
:103D40000A0A42700A0C090E8270C170001D704789
:103D500000E005E0EFF31180202181F31188704726
:103D600080F311887047F5E7FAE70000F2E7F7E71C
:103D70000D49C20744BF01220A60820744BF4FF4C5
:103D800080720A60400744BF4FF48030086070477B
:103D9000064AC30748BF1160830748BF5160400708
:103DA00048BF916070470000042009401820094076
:103DB000DFF800F0E1BE011070B5FFF7C9FF094D53
:103DC0000446A8680021FFF7F3FF06466869861BD2
:103DD000A869B04238BF00262046FFF7BAFF304638
:103DE00070BD00BF7801002070B50446FFF778FC75
:103DF000451EAD41ED0F114E30680028FCD0A047A4
:103E0000012131601DB1BDE87040FFF76DBC70BD90
:103E1000F8B504460D46FFF763FC461EB641F60FA3
:103E2000064F38680028FCD02846A0470121396099
:103E30001EB1BDE8F140FFF757BCF1BD00800C405A
:103E4000DFF800F021C00110DFF800F02DB4011000
:103E5000DFF800F0CDAC0110DFF800F02DC001104C
:103E6000DFF800F055A40110DFF800F0F99B011015
:103E7000DFF800F0FDB1011010B50400002C05D0F2
:103E80000823242200212000FEF744FB10BD10B5BA
:103E90000400002C05D008233C2200212000FFF75D
:103EA000CFFF10BD80B5FFF737FAADF80000FEF781
:103EB000E1FAADF80200009802BD11B581B001AC85
:103EC0006088FEF7DBFA2088FFF72AFA13BDF8B501
:103ED000DFF8080B007801285CD00120DFF8FC1A1D
:103EE0000870DFF8FC0A80088000DFF8F81A086024
:103EF000DFF8F41ADFF8EC0A0068091ADFF8EC0AB8
:103F00000160DFF8E00A0068DFF8E41A0860DFF813
:103F1000D40A0468DFF8CC0A0168DFF8D00A006828
:103F200041188C4203D200202060241DF2E7DFF804
:103F3000C00A0068DFF8B41A0968890800EB81003C
:103F4000051F00202860DFF8A80A0668E820306016
:103F5000DFF89C0A006810F1E807DFF8900A0068B3
:103F600080088000EC383860DFF8880A076000209D
:103F700000F011F8DFF8801A0860DFF8740A0068B2
:103F8000DFF8701A0860DFF8640A0068001FDFF8C5
:103F90006C1A0860F1BD2DE9F0418046002700242D
:103FA00018F1040818F00300C0B2002807D018F177
:103FB0000408414680465FFA88F8B1EB0808FFF72D
:103FC00071FFDFF83C1A0860B8F1110F03D2DFF877
:103FD000240A066802E0DFF8200A06683568002D2A
:103FE00004D595F000450020040012E0E4B2002C56
:103FF0000AD039683068411839603868404508D3BC
:104000003E00306805000DE045450BD2012004005C
:1040100037002E4430680500002D02D10020060034
:1040200000E0DCE7002E1FD0B5EB0805042D0ED311
:1040300006EB0800056058F000413160DFF8BC195C
:104040000968B1EB0801DFF8B42911600BE0DFF873
:10405000AC0901683068091ADFF8A009016030680E
:1040600050F000403060361DDFF894090068FFF71B
:1040700024FF3000BDE8F08138B50400FFF712FFDF
:10408000DFF87C190860251F286820F000402860B0
:10409000DFF86809016828684118DFF860090160E5
:1040A000DFF850090068854202D2DFF84809056050
:1040B000DFF84C090068FFF700FF31BD2DE9F84338
:1040C0000026002500275FF00008FFF7EBFEDFF871
:1040D00030190860DFF82009D0F80090D9F8000006
:1040E0000400002C02D1B84519D217E0002C07D5E6
:1040F00094F0004400200500B8450DD2B8460BE00E
:10410000EDB2002D04D0306820183060E71903E0CC
:104110002700012005004E46A144DFE7B846DFF83E
:10412000E0080068FFF7C9FE4046BDE8F28310B51D
:104130000400DFF8B80800682060DFF8C0080068F5
:104140006060FFF7BBFFA060A068092803D3A068E8
:104150000838A06001E00020A06010BD10B5040088
:10416000FFF7B5FE4BF6BE2010BD70B504000D0084
:1041700016002800FFF70FFF70BD70B504000D009A
:1041800016002800FFF778FF70BD13B5040001A8E2
:10419000FFF7CDFF13BD01000120704770B504008B
:1041A000FFF780FE05000026032E1BD2DFF8640A0D
:1041B0000C2101FB06F14058002813D0DFF8540A07
:1041C0000C2101FB06F14058844209D12800FFF779
:1041D00074FEDFF8401A0C20464301EB060005E0B0
:1041E000761CE1E72800FFF768FE002070BDF8B5F7
:1041F0000400FFF757FE05000026032E34D2DFF837
:10420000140A0C2101FB06F14058002818D1DFF8F0
:10421000040A0C2101FB06F100EB01073C600020C1
:10422000B86000210020FFF70FFE78607868002852
:1042300001D100F0A7FD2800FFF73FFE380017E08E
:10424000DFF8D0090C2101FB06F14058844209D166
:104250002800FFF732FEDFF8BC190C20464301EBC3
:10426000060005E0761CC8E72800FFF726FE0020C0
:10427000F2BD70B50400FFF715FE05000026062EFE
:1042800019D2DFF8340A0C2101FB06F1405A00284C
:1042900011D02000DFF8201A0C2202FB06F2895A06
:1042A00080B2884205D12800FFF707FE3000C0B277
:1042B00005E0761CE3E72800FFF7FFFDFF2070BD57
:1042C00010B50400200080B2FFF7D3FF0100C9B28F
:1042D000FF2901D1002006E0DFF8DC29C9B20C205B
:1042E000414302EB010010BD38B505002888FFF7F7
:1042F000E7FF0400002C02D15FF0FF3008E0A06867
:10430000002802D17FF0010002E02800A168884760
:1043100032BD38B504000D002900DFF82C0AA04793
:1043200031BD10B50020032810D20021DFF8E428A9
:104330000C2303FB00F3D1500021DFF8D8280C2315
:1043400003FB00F31A449160401CECE70024062CA8
:1043500008D20020DFF860190C2202FB04F2885218
:10436000641CF4E7FFF7B3FD10BDF0B58FB0FEF7A6
:10437000D3FF06000024002C30D16846FFF787FDEC
:10438000DFF8C80950F824000690DFF8C40950F897
:1043900024000890DFF8BC0950F824000490DFF8EE
:1043A000B80950F82400059000226946DFF8AC09EE
:1043B000FFF74EFD0500002D01D100F0E3FCFFF7F3
:1043C00071FD07002800FFF712FF002801D100F05F
:1043D000D9FC3800FFF771FD641CCCE73000FEF714
:1043E0009FFF0FB0F0BDF8B504000D00FFF75AFDB8
:1043F0000700002045F80C0C2068002801D125603A
:104400000AE02068060056F80C0C002802D056F886
:104410000C6CF8E746F80C5C3800FFF74EFDF1BD78
:1044200070B504000025FFF73DFD06002068002858
:104430000AD02068050055F80C0C2060002045F8D3
:104440000C0CFF2005F8020C3000FFF736FD2800A9
:1044500070BDF8B505000C000026FFF723FD07002E
:10446000002C0BD0260056F80C0C002802D056F871
:104470000C6CF8E7286846F80C0C2C603800FFF745
:104480001CFDF1BD38B5FFF7E7FC05002800FFF77C
:1044900085FE0400002C02D17FF004000AE0A06831
:1044A000002801D1022005E05FF000416068FFF7BD
:1044B000D7FC002032BD0200D2B2062A13DADFF8A0
:1044C000F807D2B20C2303FB02F3C05A00280AD02B
:1044D000DFF8E407D2B20C2303FB02F3C05A4FF615
:1044E000F873984202D15FF0FF3008E0DFF8C807A8
:1044F000D2B20C2303FB02F3C05A0880002070479D
:10450000D0B506000C0000274FF47A720023A2FBFE
:10451000060102FB071103FB0611DFF844281268AD
:10452000002300F033FC02000B005FF0004000218C
:104530008B4205D301D8824202D37FF0020001E012
:1045400022600020D0BD10B50400A06861688847D3
:1045500010BD2DE9F04105000E00FFF77DFCFFF7CF
:1045600046FE0400002C04D100F00CFC7FF0030098
:1045700039E0FFF797FC07005FF00008B8F1060F7D
:104580002AD2DFF834070C2101FB08F1405A002839
:104590001FD14FF6F870DFF820170C2202FB08F24B
:1045A0008852DFF814070C2101FB08F1084444602D
:1045B0000020DFF804170C2202FB08F21144886087
:1045C00085F80080606830603800FFF776FC0020D6
:1045D00009E018F10108D1E700F0D4FB3800FFF73B
:1045E0006CFC7FF00300BDE8F08138B50400B4F145
:1045F0000C052800FFF740FD31BD2DE9F041040016
:104600000D0016001F00280080B2FFF732FE804622
:104610005FFA88F8B8F1FF0F02D15FF0FF3008E0D1
:104620003B003200D2B24146C9B22000C0B200F015
:10463000D2F8BDE8F081F8B505000E0017003A0089
:104640003100280000F010F90400002C11D1694657
:104650002888C0B2FFF72FFF002805D03868FFF781
:10466000C4FF7FF0050005E0BDF800002880FFF7DB
:1046700009FF2000F2BD70B582B00400FFF7ECFB2B
:1046800006003000FFF78AFD050000F0F7FB01008F
:10469000C9B2002902D0C9B2012902D17FF00400B9
:1046A00022E0002D02D17FF004001DE0002C02D199
:1046B000002000900CE014F1010F03D15FF0FF30F7
:1046C000009005E069462000FFF71AFF00280BD193
:1046D000009B5FF0004200216868FFF7C5FB0028DF
:1046E00001D0002000E0012076BD10B504005FF08D
:1046F00000412000FFF7B4FB002010BD2DE9F0477A
:1047000005000E0017009846FFF7A6FBFFF76FFDA8
:104710000400002C02D17FF0020047E0FFF7C2FB4B
:1047200081465FF0000ABAF1060F38D2DFF888053B
:104730000C2101FB0AF1405A00281DD1DFF8780551
:104740000C2101FB0AF14552DFF86C050C2101FB3D
:104750000AF108444460DFF860050C2101FB0AF10E
:104760000844866087F800A06068C8F800004846E2
:10477000FFF7A3FB002019E02800DFF83C150C220E
:1047800002FB0AF2895A80B2884205D14846FFF7F7
:1047900094FB7FF0020009E01AF1010AC3E700F080
:1047A000F1FA4846FFF789FB7FF00300BDE8F08788
:1047B00010B50400A4B22000FFF7EDFB10BD10B54A
:1047C00004002000FFF758FC10BD10B504002000C5
:1047D000FFF7ADFC10BD2DE9F84304000D001600F5
:1047E0001F00B7F10C08EDB2062D02DAE4B2062C78
:1047F00002DB7FF0020035E0FFF754FB8146DFF873
:10480000B804EDB20C2101FB05F108444068002812
:1048100005D14846FFF751FB7FF0020022E04846F1
:10482000FFF74BFB88F8044088F8055088F80660CD
:104830003900DFF88404EDB20C2202FB05F21044CB
:1048400040680830FFF7CFFD5FF00041DFF86804F3
:10485000EDB20C2202FB05F2104440684068FFF7FD
:10486000FFFA0020BDE8F2832DE9F04105000E00BB
:104870001700FFF7F1FA80464046FFF78FFC04006F
:10488000002C02D17FF0040010E014F10800FFF7C3
:10489000C7FD0100002901D1022007E0B1F10C029F
:1048A000107928705079307039600020BDE8F081AF
:1048B00080B501208DF800009DF800000028FBD194
:1048C00000F060FA002002BD80B5FDF727FE02BDB2
:1048D00080B5DFF88C0400687FF00041A1FB000187
:1048E0004FF47A72002300F051FA5FF00042002387
:1048F000994207D301D8904204D37FF000420023AD
:104900001000190002BD2DE9F84305000E00170044
:10491000984669462800FFF7F3FD0400002C01D0FB
:10492000200008E0DDF8009043463A003100484698
:1049300000F003F82000BDE8F2832DE9F04389B0D0
:1049400005000E0017009846D8F80000002829D16D
:104950000C20FFF720FB0400002C02D17FF00300A5
:1049600038E06846FFF788FA0020ADF81000002014
:104970000590069400236A462900DFF8E803FFF754
:1049800077FA20602068002807D1FFF791FF200008
:10499000FFF772FB7FF003001CE06660A760C8F8B9
:1049A00000400FE0D8F80040DFF8BC030068804703
:1049B00081462068FDF7B6FDA7604846DFF8AC13D6
:1049C0000968884729002068FDF7B0FD2068FDF7D9
:1049D000B1FD002009B0BDE8F08300009E2F00204B
:1049E000C82F002054120020FF3F00205C1200203E
:1049F00058120020481200204C12002050120020B3
:104A00004412002038B504002500002C02D028688C
:104A1000FDF788FD31BD1CB504008DF804406846E3
:104A200000F066FA9DF8050016BD1CB5040001945F
:104A3000684600F0A7FA16BD1CB50400019468464C
:104A400000F0AEFA16BD2DE9F04F85B0040088469F
:104A500015001E00FFF700FA04900498FFF79EFB74
:104A600007000020039000F009FA0100C9B20029F4
:104A700002D0C9B2012902D17FF004007BE0002FEF
:104A800002D17FF0040076E0002C02D100200190DA
:104A900010E014F1010F03D15FF0FF30019009E045
:104AA00001A92000FFF72CFD8346BBF1000F01D0C8
:104AB000584660E05FF00109FDF730FD824601983D
:104AC00010EB0A0A019B5FF0005200217868FFF7A3
:104AD000CBF9002847D002AA69460DF10100FFF783
:104AE000C3FE8346BBF1000F28D10DF102019DF8F2
:104AF0000100FFF7E0FC002817D1029A9DF8001092
:104B0000BDF80200C04700280FD0002D02D0BDF82C
:104B100002002880002E02D09DF80000307002981C
:104B20000E9908605FF000091DE0029903A8FFF7E5
:104B30005AFC5FF000517868FFF792F95FF00109C5
:104B4000019810F1010FBDD001980028BAD0FDF7EF
:104B5000E5FCBAEB0000002802D00199814200D2A6
:104B600001E00190AEE7FFF78DFC039917F1080013
:104B7000FFF76FFC484605B0BDE8F08FF8B5FFF7CA
:104B80006BF9040000F07AF90100C9B2002902D0E3
:104B9000C9B2012901D1FF2022E0FFF783F9050006
:104BA0000026062E18D244480C2101FB06F1405A7B
:104BB000002811D040480C2101FB06F10844406850
:104BC0000068A04206D137002800FFF776F93800C8
:104BD000C0B205E0761CE4E72800FFF76EF9FF207D
:104BE000F2BD30B583B004000D00ADF800400020E8
:104BF000ADF802008DF8065068465D49096888479F
:104C00000100002902D19DF8070000E0FF203EBD11
:104C100000000000D81100201378422B01D10120A0
:104C200000E00020C0B270470CB4F0B587B00500BA
:104C30000E000CAF00F022F90400E4B2002C02D008
:104C4000E4B2012C01D1FFF733FE1420ADF81000BF
:104C500000200290FF208DF8120006960597FFF7BE
:104C60008DFF05AB0322EDB2290089B2C0B2FFF778
:104C7000C4FC0020019001A80090002300223D49BF
:104C800041F28830FFF7DFFE0400012C02D1FFF76C
:104C90000FFE0AE0002C06D10198002805D00198EB
:104CA000FFF7A3FC01E0FFF703FE0598006807B0DB
:104CB000F0BC5DF80CFB0000FC1100202DE9F8436E
:104CC00004000D0016001F00B7F10C08EDB2062D10
:104CD00002DAE4B2062C02DB7FF0020032E0FFF7DA
:104CE000E1F881462448EDB20C2101FB05F10844AE
:104CF0004068002805D14846FFF7DFF87FF0020042
:104D000020E04846FFF7D9F888F8044088F80550B5
:104D100088F8066039001848EDB20C2202FB05F253
:104D2000104440680830FFF75EFB5FF00051124806
:104D3000EDB20C2202FB05F2104440684068FFF718
:104D40008FF80020BDE8F2838033010018350100A0
:104D50001C350100143501009805002013430000A4
:104D6000F4340100474500009C050020A005002008
:104D7000A4050020194C0000FC110020DFF800F011
:104D80001D9A01100120FFF7F9BFFF7F1B4213D1CD
:104D9000094236D12AB18446B0FBF2F002FB10C2C0
:104DA000704700F00FB9FCD30022002370470B00BE
:104DB0000200002100207047904271EB030CF6D3F3
:104DC00070B5B1FA81F4B3FA83F52C1BA340C4F19A
:104DD000200532FA05F63343A2405FF00046E64074
:104DE00002E05B085FEA3202841A71EB030524BF1C
:104DF000204629467641F4D302000B003000002102
:104E000070BD012ACFD970B5140C20D0B1FA81F44D
:104E1000B2FA82F5C4F120046419B4F12006D6D3A5
:104E2000B2405FF00044F440002502E052085FEA1F
:104E30003303C61A71EB020E24BF3046714664413B
:104E40006D41F3D302000B002000290070BD0C4619
:104E5000B1FBF2F102FB11452D0445EA1045B5FB0B
:104E6000F2F402FB145580B240EA0545B5FBF2F0BE
:104E700002FB105240EA044070BD00400148007D32
:104E8000704700BFA401002038B50400B4FA84F5CF
:104E9000EDB2202D11D0D5F11F050120A8404440CE
:104EA000EDB2052D04DAEDB22800FDF7CDFCEDE7FB
:104EB000EDB2681FFDF7DDFCE8E731BD38B5040051
:104EC000B4FA84F5EDB2202D11D0D5F11F050120E3
:104ED000A8404440EDB2052D04DAEDB22800FDF7FC
:104EE0004EFCEDE7EDB2681FFDF75FFCE8E731BD72
:104EF00038B5040001206071207900281DD0FEF72C
:104F0000D1FF05002D480078FF2805D12800FEF7C5
:104F1000D4FF7FF0060034E028480078401C274981
:104F2000087026480078012803D125480068FFF75B
:104F3000ABFF2800FEF7C1FF22E0FEF7B3FF05003C
:104F40001E480078002805D12800FEF7B6FF7FF044
:104F5000070016E019480078401E184908701748E5
:104F60000078002809D12800FEF7A7FF1448006840
:104F7000FFF7A4FF0020607102E02800FEF79DFF0C
:104F8000002032BD10B50400606810F07F4F02D0E1
:104F90007FF0020003E06068FFF776FF002010BD9D
:104FA00010B50400606810F07F4F02D07FF002005F
:104FB00003E06068FFF782FF002010BD9F2F0020F4
:104FC000AC050020704700282DE9F0439FB08146D2
:104FD0002698DFF8CC8A8DF83B00174600201E4645
:104FE00002910B900FF270144FF0FF350AE017F8A2
:104FF000011B0298C8470028029000F09A800B9885
:10500000401C0B90387850B12528F0D100200021A9
:10501000059006910790089109900A9103E00B987A
:105020009EE041F0010117F8010F2028F9D0232854
:105030000DD02B2804D02D2806D030280AD07AE0B5
:1050400041F0020189B2EEE741F00401FAE741F0D4
:105050000801F7E741F01001F4E700200D9009E0A6
:105060000D98404505DA00EB800302EB4302303A2D
:105070000D927F1C3A78A2F130000A28F0D33A78DA
:105080002E2A18BF0C9523D117F8010F2A2807D113
:10509000306830607F1C50F8042B30600C9217E0B1
:1050A0002D280CBF17F8010B002000220C920AE0FB
:1050B00040B90C9A424505DA02EB820203EB420347
:1050C000303B0C937F1C3B78A3F130020A2AEFD3CC
:1050D000ADF838102046397800F062FE08B117F8B4
:1050E000010B8DF83A009DF83A00682804BF397822
:1050F000682903D162208DF83A0007E06C2804BFCC
:1051000038786C2803D171218DF83A107F1C10A8D3
:105110000490324617F8013B6946484600F060F8B3
:1051200038B910AA6946484600F08CF900287FF586
:1051300069AF284614E02A288FD13068306050F8D3
:10514000042B3060002A0D9204D5524241F0040134
:105150000D9289B27F1C92E7686A6C747A4C0000E9
:105160001FB0BDE8F083622820D0682811D06A28DB
:1051700003D06C2827D0712825D10868C01D20F0E5
:1051800007000860D0E9002308300860194610467F
:105190007047002A0A680A60106803D0121D0A606E
:1051A00000B217E0121D0A6080B217E0002A0A68F8
:1051B0000A60106803D0121D0A6040B20AE0121D96
:1051C0000A60C0B20AE0002A0A680A60106803D0C8
:1051D000121D0A60C1177047121D0A600021704736
:1051E00070B51C460D46B4F125002E69114600F03D
:1051F00017811C386AD0001F022867D9133843D0A2
:10520000093863D0801E16D0401E1ED0401E0228D2
:105210005CD9001F19D0401F00F08380401E33D09E
:10522000401E00F0CD80C01E00F0D880801E2BD024
:10523000C01E29D0FAE06869421C6A610A680A60E7
:1052400052F8043B0A603354FAE095F83A00012220
:10525000FFF789FFC5E900010023994204DA686974
:10526000411C69612D210DE0288F810704D56869F3
:10527000411C69612B2105E0C00722D56869411CEA
:105280006961202131541CE095F83A000022FFF7B3
:105290006AFFC5E9000195F83800010711D5D5E985
:1052A00000230020834208BF82420AD044F020003D
:1052B000782806D1686930213154401C411C69614D
:1052C0003454214668693044E86083E00868C01DB2
:1052D00020F007000860D0E9002308300860C5E925
:1052E0000023D5E90001C80F04D06869411C696139
:1052F0002D210DE0288F810704D56869411C696163
:105300002B2105E0C00704D56869411C6961202193
:10531000315468693044E8602146284600F0C7F9F6
:105320008EE005F13A02507820B14FF0FF340FF6CD
:1053300010205EE01078622808D0682824D06A28FF
:1053400012D06C282ED071280ED02BE00A680A608B
:1053500052F8040B0A6020B94FF0FF340FF6F81032
:1053600047E0E96A01706BE00A680A6052F8040BD2
:105370000A6020B94FF0FF340FF6DC1039E0EA6A1A
:10538000D317C0E900235BE00A680A6052F8040BF7
:105390000A6020B94FF0FF340FF6BC1029E0E96A2B
:1053A00001804DE00A680A6052F8040B0A6020B9D7
:1053B0004FF0FF340FF6A0101BE0E96A01603FE0F8
:1053C0000A680A6052F8040B0A600021C5E900016E
:1053D000EE607821284600F0BCF831E008680860EB
:1053E00050F8044B0860EC603CB94FF0FF340FF606
:1053F000801000F0E1FC201A70BD2E6B002E04D549
:10540000204600F0FBFC044608E03246002120461E
:1054100000F010FD002814BF041B3446AC610FE0FF
:105420006869411C69612521315409E06869411CA2
:10543000696125223254200002D0481C68617454EE
:10544000002070BD2DE9F0410F4682B00646796B11
:105450007869BC6A091A386A091AB869091A786A37
:10546000091AF869091A97F838000C1B4107904689
:105470000FD42021002C8DF800100ADD25460123D1
:105480006A463946304600F044FC00285DD16D1E66
:10549000F5D17B6942463946304600F03AFC002897
:1054A00053D130208DF800003D6A002D09DD012325
:1054B0006A463946304600F02CFC002845D16D1E66
:1054C000F5D1BB69FA683946304600F022FC002865
:1054D0003BD130208DF800007D6A002D08DD0123CE
:1054E0006A463946304600F014FC70BB6D1EF6D19A
:1054F000F868B969FB6942183946304600F009FC82
:1055000018BB30208DF80000BD6A002D08DD012396
:105510006A463946304600F0FCFBB0B96D1EF6D144
:1055200097F8380041070DD52021002C8DF8001088
:1055300008DD01236A463946304600F0EAFB20B90F
:10554000641EF6D10020BDE8F6814FF0FF30BDE8C3
:10555000F6812DE9FC4B06468B463469BBF16F0F93
:1055600008BF082505D04BF02001782914BF0A2573
:1055700010253C27D6E90023BBF1640F18BFBBF10F
:10558000690F9046994606D100218B4203DAD8F183
:10559000000869EB49090020814508BF80451FD1FB
:1055A000306BE8B9082D4ED196F8380001074AD57E
:1055B00030203B2784F83B0045E000280ED596F8C4
:1055C000380000F01400102808D1726B7069121AAC
:1055D000306A121A511A0029C8BF3162BDE8F38B34
:1055E00001968DF800B0404649462A46EB17FFF772
:1055F000CDFB30327F1ED2B23A2A04DB9DF8000088
:10560000A0F151018A18E255404649462A46EB1757
:10561000FFF7BCFB894600228046914508BF9045B4
:1056200004D00198C168E0198142DCD3082D019EA5
:1056300009D196F83800010705D5E15D302902D07F
:105640007F1E3020E055E019F060C7F13C01306B5F
:10565000B1618142B1DA411A31624FF6EF70318F98
:1056600001403187BDE8F38B2DE9D04306460F4654
:1056700014464FF00008DFF82C9412E0E00707D53D
:1056800042464B463046394600F000FC06460F467F
:105690004046494642464B4600F0F8FB64108046BF
:1056A0008946002CEAD130463946BDE8D0832DE941
:1056B000F04705468A468EB0D5E900894AF02000B9
:1056C000612802AF00900AD0286B002802D506207E
:1056D000286304E001BF0098672801212963D5E908
:1056E000006460004015401C0DD121030BD0AAF1CD
:1056F000610103201A29A86102D20FF2906110E023
:105700000FF28C610DE060004015401C0ED12103AA
:105710000CD1AAF1610103201A29A86116D30FF256
:105720007861E8680322FDF7CBFCCBE124F000436D
:10573000B3F5801F26F0000211D20020834208BF7B
:105740008242019005D13046214612E00FF24461B9
:10575000E7E701AA3046214600F06AFC09E0D2489A
:10576000D24900EB1350019004EA0102D0493046BF
:105770001143C5E90001009A612A0DD1E868302182
:105780000170811CE960BAF1610F0CBF78215821CA
:1057900041706869801C6861D5E90023CDE90C235C
:1057A000DDE90C0121F0004100220023994204BFF1
:1057B0009042002000F04D810098612840F09C80CC
:1057C000286B00284CBF2120401C00904046009EC2
:1057D000761C4946DDE90C8900F062FC01988DF8E1
:1057E000082038BF89F00049001F0190002E0DF1FC
:1057F000090040F33C810746404649460022002309
:1058000000F066FC80F032814800400D00F11C027F
:1058100011D0002A0FDD40F2FF70824205DBA5495E
:1058200009F000400143002012E06FF31E5141EAED
:10583000025140460CE029F0004128F00000994256
:1058400008BF98420FBF49461C22494600F058FC49
:105850008046894600F0F2FCF61F002E044609DD62
:1058600000F00AFD02460B464046494600F016FD90
:1058700080468946F81D072104E004F00F0200F875
:10588000012D2411002C01DD491EF6D5491E5CBFF7
:10589000002200F8012DF9D5E4E00020194602AA03
:1058A0000A4400E05B1E12F80149491E8442F9D007
:1058B0000F2804D10DF10900425C521C425400290A
:1058C00004D50198001D02AF5B1C0190581E0CD43A
:1058D0003918AAF13A040A783032D2B2392AC8BF4C
:1058E000A218401E01F80129F5D5286B002840F1C7
:1058F000AF80591E2963ABE04046494600F0D0FB1B
:10590000019938BF89F0004947F2975041436A4AEC
:1059100091FBF2F20192D2F1070204DD40464946C2
:10592000FFF7A2FE0AE0524200206449FFF79CFE06
:1059300002460B464046494600F022FD804600984C
:105940005F4E6628286B06BF019C0A340624241883
:10595000142CC8BF142430208DF8080089460DF19E
:10596000090000E03846002C34DD07464046494631
:1059700000F02AFE01460A4607F1080304200A2720
:10598000B2FBF7F707EB870EA2EB4E02303203F8BB
:10599000012C0A22B7FBF2F202EB820EA7EB4E07B4
:1059A0003037401E03F8027DE9D1083C002C03F19A
:1059B0000807D7DD084600F01BFE02460B464046AE
:1059C000494600F06BFC0022334600F05FFA804647
:1059D0008946CBE70DF10901401A0DF1090704E0F2
:1059E0000199491E401E01917F1C39783029F7D05A
:1059F000009A662A02D10199491C03E0652A0CBF6E
:105A0000012100212B6BCB189842B8BF431E002BFD
:105A10001ED4834204DAF85C3528A8BF392000DAA6
:105A2000302019467A1E02EB010800E05B1E18F8D0
:105A30000199491E8145F9D0392802D1785C401C72
:105A40007854002904D50198401C17465B1C01902E
:105A5000019800B200901BB23A465146284600F029
:105A600034F82FE0C71D002E3FF7C6AE38460DF1C3
:105A70000901401A009903468842C8BF0B46002B13
:105A80000DF109073FF531AF8342BFF606AF0DF1C7
:105A90000900C05C07287FF700AF0F20FEE600007A
:105AA000CBCCCC0C0000244002FCFFFFFFFF0F809A
:105AB0000000E03F0000F07FA08601000000F03F02
:105AC00084D797410EB0BDE8F0872DE9F046064631
:105AD00085B01C46376B002C914602DC01240FF286
:105AE000BC298A46BDF930504AF02000662808BF1C
:105AF0006D1C12D0672878D115F1040F7BDBBD42F5
:105B000079DA96F838006D1C010702D4BC42B8BFA0
:105B100027462DB27F1B48BF00272DB2F068B16920
:105B2000002D23DC4A1C30234354002F03DC96F85D
:105B30003800010703D5F0682E218154521CEF4232
:105B4000B8BF7D422DB26842ED19A542B8BF2C46C0
:105B5000B261706224B2F461F068B36922464946CA
:105B60001844FDF7ADFA281BB062BBE02A46944208
:105B7000084416DA22464946FDF7A2FAB069201811
:105B8000B0612C1B002F746203DC96F838100A07F2
:105B900005D5F1682E220A54F069401CF061B76205
:105BA000A0E04946FDF78CFAB0692818641B002F65
:105BB00003DC96F838100A0703D5F1682E220A5440
:105BC000401CB06124B2A742B8BF3C46F068B3693C
:105BD00024B2224609EB05011844FDF771FAB069B9
:105BE0002018B0613C1B74627CE0BAF1610F14D1E3
:105BF0004FF0700A16E0BC4204DA96F838100A0733
:105C000058BF27467F1E48BF0027BAF1670F14BF51
:105C10004FF0450A4FF0650A04E0BAF1410F08BFA2
:105C20004FF0500AB169F368481CB061002F19F8B1
:105C3000012B5A5403DC96F838100A0717D5F2687E
:105C4000431CB3612E211154002F10DD641E24B2B9
:105C5000A742B8BF3C46F06824B2224649461844E1
:105C6000FDF72EFAB0692018B0613F1B7762F0682B
:105C7000B1690844002D80F800A003D42B214170A5
:105C8000811C03E02D2141706D42811C00206A4679
:105C90000AE02B460A2493FBF4F505EB8504A3EBFD
:105CA000440302F8013B401C2DB2002DF1DC012819
:105CB00006DC4AF02002652A04BF302201F8012BDD
:105CC00048B9302001F8010B07E0401E1DF8002004
:105CD000303201F8012B0028F7DCF068B26910447B
:105CE000091AF16196F8380000F0140010280DD15F
:105CF0007169B0694118706A4118F0694118B06A59
:105D00004118706B8142BCBF411A316205B0BDE8D9
:105D1000F086F8B505460E4617461C46002074B1BD
:105D200017F8011BB068A847B06030B1F06A401C9A
:105D3000F0620020641EF3D1F2BD4FF0FF30F2BDDF
:105D40007072696E74665F733A20256E20646973A1
:105D5000616C6C6F776564007072696E74663A206E
:105D600062616420256E20617267756D656E7400D6
:105D70007072696E74665F733A2062616420257385
:105D800020617267756D656E740000006E616E0053
:105D90004E414E00696E6600494E460030000128B3
:105DA0000278C9B28A421AB11CBF10F8012FF9E774
:105DB00018BF00207047032880B508B90FF21C00F7
:105DC00005490B681BB122220021984701E0FEF72C
:105DD000D9FF222002BD00007C2F0020636F6E736C
:105DE000747261696E742068616E646C65723A20C9
:105DF000626164206D6573736167650000F1010382
:105E0000810704D010F8011B89B18107FAD102681B
:105E1000B2F10131914311F0803F04BF50F8042FDB
:105E2000F6E710F8011B11B110F8011BFBE7C01ACF
:105E30007047052AC9B2830706D0521E22D310F834
:105E4000013B9942F7D11FE0083A13D302F1040253
:105E500041EA012141EA014150F8043B121F21BFF0
:105E60004B40A3F1013C2CEA030C1CF0803FF3D023
:105E7000C9B2001F083210F8013B521E28BF91EA38
:105E8000030FF8D818BF0120401E7047B0B581EA53
:105E9000030C0CF0004C40F2FF7515EA11541DBFC5
:105EA00015EA1357AC42AF4239E0E41923EA4553EF
:105EB00043F48013C90241F0004141EA505EC70239
:105EC0001100A7FB020200284FF00000EEFB0120AA
:105ED0004FF00001E3FB072118BF42F00102401818
:105EE00000214941E3FB0E01A4F580640F0302D2B7
:105EF00052004041494154F101046CDD470872F100
:105F0000004250F1000051EB0451A1F580115CBF3B
:105F100041EA0C01B0BD4CEA05510020B0BD05EAD4
:105F20001357AC4214BFAF4241E050EA410E1CBFD0
:105F300052EA430E02E061460020B0BD24423C44D8
:105F40001BD15FEA070EF6D0090302BF014600200D
:105F5000AEF1140EB1FA81F7AEEB070401FA07FEB9
:105F60000C37C7F1200100FA07F7C8404EEA000ECF
:105F700023EA455343F48013A2E733F00043B3FA16
:105F800083F704BFB2FA82FE77440B3FE41BB7F1FC
:105F9000200E2FBF02FA0EF3BB40C7F1200E22FAEB
:105FA0000EFE38BF43EA0E03BA40641C82E750EA93
:105FB000410E14BF52EA430E6FF000014FF4001778
:105FC00017EB430F8ABF194617EB410FB5E74CEAB1
:105FD00005510020B0BDD4F10104B4F120070FDA5F
:105FE000C4F12007520828BF42F0010210FA07F559
:105FF00001FA07F7E1BF2A43E0403843E1400FE0F0
:10600000352C98DCC7F1200452EA400220FA07F24E
:1060100018BF42F0010231FA07F0A1400A43002103
:1060200072F1004250F1000051EB0C01B0BD0A05C5
:1060300010B5144600F002F8226010BDC1F30A53F7
:1060400043B14A0012F5001F28D2A3F2FE32A1EBA1
:106050000251704750EA410C20D001F0004C31EA67
:106060000C01B1FA81F204BFB0FA80F3D2180B3AF6
:10607000B2F120032CBF00FA03F1914041EA0C0178
:106080003EBFC2F1200C20FA0CF31943904052425B
:1060900040F2FD33D21A01EB0351704700227047E2
:1060A0004FF4001C1CEB410F94BF1CEB430F09E0A5
:1060B00041EA030C50EA4C0C52EA0C0C03D2994210
:1060C00008BF9042704714BF8B428242704706035C
:1060D0004FF4001C1CEB410F94BF1CEB430F09E075
:1060E00041EA030C50EA4C0C52EA0C0C03D28B42EE
:1060F00008BF8242704714BF994290427047020124
:10610000124254D440F2FF7C1CEA11530FD0634575
:1061100031D09B1863453CBF01EB0251704701F041
:10612000004141EA0C510020AFF30080704750EA73
:10613000410320D001F0004C91EA0C011CD0B1FACF
:1061400081F30B3B9A420DD9D21A994051EA0C01C6
:10615000C3F1200C20FA0CFC61449840531C40F21F
:10616000FF7CD7E7914041EA0C01C2F1200C20FAF4
:106170000CF3194390407047B0FA80F31533202B8D
:10618000E0D3202AEED3203A203B9A4209D9D21AF2
:1061900000FA03F141EA0C010020531C40F2FF7C9D
:1061A000B8E700FA02F141EA0C01002070475242C0
:1061B00040F2FF7C1CEA11530DD06345DBD0B2EBFB
:1061C000030C3CBFA1EB025170470CF1010221EA24
:1061D000035141F4801150EA410CCCD001F0004C45
:1061E000352A27DC30B481EA0C01B2F1200309DA48
:1061F000C2F12003044601FA03F5D0402843D14000
:106200009C400CE0C3F12002450020FA03F418BFC3
:1062100044F0010421FA03F091400C43002174F191
:10622000004550F1000051EB0C01244230BC7FF4DA
:106230007BAF70476146002076E70000C1F30A5348
:1062400040F2FE329B1A14DDD3F120034FEAE172D3
:1062500008DDC90241EA505141F00040D8408018A1
:106260005040704703F2E13010B1D24382F0004059
:106270007047002070470000C11768B14840401ABD
:10628000B0FA80F29040D21CC907C2F5846241EA9C
:10629000025202EBD02140057047FEE770B44FF088
:1062A000004591EA030F40F1B9816B40841A71EB0C
:1062B000030603D2001BB141121973414FF4001CB5
:1062C0001CEB410F34BF7CEB430442E00C0DA4EB0C
:1062D0001356352E4FDC45EAC323DB0A45EAC121BC
:1062E000C912B6F120050DDD63FA05F6EB4086EA2A
:1062F0000305124218BF45F00105C01851F1000115
:106300000CD213E062FA06F5F2405540F3415A40D0
:10631000B340F3405A408018594107D349085FEA17
:1063200030005FEA350528BF45F0010501F5801111
:10633000420875F1004250F1000041EB04514E005B
:1063400016F5001F70BC38BF70470020090D090505
:1063500070471CEB410F10D252EA43060BD0BCEB46
:10636000410F05D80C0DAB43661E342EB6DD02E09E
:10637000AB438018594170BC704770BC7047704780
:10638000F0B540F2FF7581EA030C0CF0004C15EA01
:1063900011541DBF15EA1357AC42AF42E5E0BC41B2
:1063A000C1F31301C3F31303801A994143F480131B
:1063B00004D2641E4000494180185941C90241EA93
:1063C0005051B1FBF3F603FB1611A2FB0675D7EB98
:1063D000C020A94102D2761E80185941C90241EA63
:1063E0005051B1FBF3FE03FB1E11A2FB0E75D7EB60
:1063F000C020A94103D2AEF1010E80185941890293
:1064000041EA9051760546EA8E2EB1FBF3F603FB86
:106410001611A2FB0675D7EB8020A94102D2761E89
:1064200080185941C90241EA50514EEA060EB1FBAB
:10643000F3F603FB1611A2FB0675D7EBC020A941AA
:1064400002D2761E80185941C90241EA5051B1FB6F
:10645000F3F703FB1711A2FB0735D3EBC020A941CB
:1064600067F100070CBF004247F0010766F3D5272C
:106470004FEA1E31B80814F5806412DDBD0775F1CE
:10648000004250EB0E5051EB045111F5801F5CBFE0
:1064900041EA0C01F0BD4CF07F6141F0E041002089
:1064A000F0BDBD076D0840EA0E5041F48011D4F1F3
:1064B0000104B4F120060ADAC4F120060200E0402B
:1064C00001FA06F3E1401843B24015430EE0342CC4
:1064D00013DCC6F1200445EA40056D0820FA06F2F7
:1064E000154321FA06F0A1400D43002175F1004249
:1064F00050F1000051EB0C01F0BD00205FEA0C01EF
:10650000F0BDCFB992185B41B3FA83F704BFB2FA7A
:1065100082F6BF190B3FB7F120062FBF02FA06F330
:10652000BB40C7F1200622FA06F638BF3343BA4013
:106530001CB1E419641E33E77F4231F00041B1FA27
:1065400081F404BFB0FA80F6A4190B3CB4F1200624
:106550002FBF00FA06F1A140C4F1200620FA06F68A
:1065600038BF3143A0403C1B1AE7AC421ABF05EAD2
:106570001357AF4212E050EA41061CBF52EA4306ED
:10658000BFE750EA4107304661461CBF41EA05516A
:10659000F0BD52EA430C08BFC143F0BD00204FF4E8
:1065A000001616EB410F98BF16EB430F08BF16EB12
:1065B000410F24BFC14305E016EB430F0CBF6146FA
:1065C0004CEA0551F0BD7047400D491840EA812062
:1065D0000CD2490DA1F58061491C40F0004005DB5B
:1065E000D1F11F0154BFC840C01770470020704749
:1065F000014648B1B0FA80F18840C91CC1F58461F8
:10660000090501EBD02140057047704770B44FF089
:10661000004591EA030F7FF549AE6B40841A71EB98
:10662000030604D26E40001BB141121973414FF4AE
:10663000001C1CEB410F34BF7CEB430682E00C0DC9
:10664000A4EB1356362E7BDC012E45EAC32341DC36
:1066500043EA525312BFD20292025B08240545EA74
:10666000C12141EA5051D2EBC020994125D407D134
:10667000B0FA80F610FA06F162D00020203608E069
:10668000B1FA81F6B140C6F1200220FA02F21143BC
:10669000B0404FEAF474B4EB465434F001064FEACC
:1066A00074040AD8D6F50016760D04F00044F040C4
:1066B00061FA06F25040F1404840C00A40EA4150B9
:1066C00021F0004128BF5FEA500550F1000044EB83
:1066D000D12135E0DB0A45EAC121C90AB6F120051E
:1066E0000EDD42EA0242120CC5F1200603FA06F65C
:1066F000EB4042EA06056D42984161F100010DE070
:1067000062FA06F5F240554063FA06FC82EA0C0292
:10671000F3405A406D42904161EB030111F4801F38
:1067200005D1641E620502D06D004041494121F44B
:106730008011430875F1004350F1000041EB045112
:1067400070BC70471CEB410F15D223F0004352EA96
:1067500043060BD04FEA4C0CBCEB410F04D80C0D98
:10676000661E342EB7DDEBE7801A994150EA4106E8
:1067700008BF0021E4E708BF1CEB430F28BF6FF000
:106780000001DDE7DFF800F01D6E0110DFF800F01A
:106790004D71011080B54FF4FC720FF278011A4868
:1067A000FCF79EFC0121194841740022022102706D
:1067B000C17601BD2DE9F0410FF250221449382075
:1067C000136854689568D6681769D2F814C0D2F86F
:1067D00018E0D2F81C800B604C608D60CE600F61B9
:1067E000C1F814C0C1F818E0C1F81C802032203173
